:1000000012C02CC02BC02AC029C028C027C026C0BF
:1000100025C0F2C023C022C021C020C01FC01EC006
:100020001DC01CC01BC011241FBECFE5D4E0DEBF25
:10003000CDBF10E0A0E6B0E0E0E2FAE002C005903B
:100040000D92A236B107D9F720E0A2E6B0E001C0D8
:100050001D92A436B207E1F756D1E0C4D1CF3E9A43
:1000600086B1876886B9089597B1907F97B997B19F
:10007000892B87B9369A349BFECF349A84B195B1D7
:10008000089586E0F1DFBC01882777FD8095982FE1
:10009000D6D32AE038E240EA5BE35DD420E030E0EA
:1000A00046EA52E458D498D3CB01089587E0DCDFC8
:1000B000BC01882777FD8095982FC1D320E030E0E0
:1000C00040EA50E448D420E030EC4FE754E41CD33D
:1000D00020E030E24BE456E43ED420E030E849E052
:1000E00055E412D320E030E04AE754E434D474D32A
:1000F000CB01089583E089B9599886E880BD539A69
:1001000008955D9BFECF8CB90895EF92FF920F93F7
:100110001F93CF93DF93E62EF12C1E141F0464F47B
:10012000082F192FC0E0D0E0F80181918F01E9DF9D
:100130002196CE15DF05C4F3DF91CF911F910F916A
:10014000FF90EF900895E199FECF9FBB8EBB6DBBF2
:10015000E29AE19A0895CF92DF92EF92FF920F9385
:100160001F93CF93DF938C016A01E62EF12C1E14AE
:100170001F046CF4C0E0D0E0F80161918F01CE0162
:100180008C0D9D1DE0DF2196CE15DF05ACF3DF91D0
:10019000CF911F910F91FF90EF90DF90CF90089536
:1001A000E199FECF9FBB8EBBE09A8DB30895CF92AD
:1001B000DF92EF92FF920F931F93CF93DF938C0107
:1001C0006A01E62EF12C1E141F046CF4C0E0D0E08E
:1001D000CE018C0D9D1DE4DFF80181938F012196E6
:1001E000CE15DF05ACF3DF91CF911F910F91FF90FA
:1001F000EF90DF90CF9008951F920F920FB60F925D
:1002000011242F933F934F935F936F937F938F931B
:100210009F93AF93BF93EF93FF9380916200909170
:1002200063000196909363008093620089E469DF24
:10023000FF91EF91BF91AF919F918F917F916F91BE
:100240005F914F913F912F910F900FBE0F901F9094
:10025000189593B39F7020E030E080E0E92FF0E044
:1002600061E070E04091600050E0022E02C05595C0
:1002700047950A94E2F740FF13C0AF01022E02C077
:10028000559547950A94E2F7A1E04A2740FF08C038
:10029000AB01022E02C0440F551F0A94E2F7842BD3
:1002A0002F5F3F4F24303105E9F6909360000895A9
:1002B000B89A0895B99A2FB5236C2FBD2EB5286032
:1002C0002EBD9BBD8ABD8EB581608EBD08951F93E6
:1002D000CF93DF93162FD72FC82F0CDFE9DFBFDEB8
:1002E000812F9D2FE7DF8B9A9398A49AC29ACC23F3
:1002F00011F0AC9A01C0AC9889B7816089BFDF91D9
:10030000CF911F910895CF93DF93CDB7DEB7279795
:100310000FB6F894DEBF0FBECDBF40E150E063E002
:10032000CE01019644DF89819A81865691098B38E6
:10033000934020F086E690E09A83898369817A81F0
:100340008B81C5DF40E150E063E0CE01019603DF21
:1003500086B38470782E00B3007710E0159507956A
:10036000159507951595079515950795879B0AC0CF
:1003700048ED50E05F834E830F2EFCEFEF2EF12C03
:10038000F02D09C08BE690E09F838E830F2EFFE750
:10039000EF2EF12CF02D939A1D821C82612C882463
:1003A0008394312C11270F2EF6E6CF2ED12CF02D71
:1003B0000F2EF0EFAF2EF3E0BF2EF02D0F2EF0E654
:1003C0004F2EF02D0F2EFAEE5F2EF02D61101BC078
:1003D00058DE282DE816F9060CF0232D211109C04E
:1003E000282D4E815F81841795070CF0232D222341
:1003F00019F093981D821C8259DE853F91401CF0B4
:1004000093981D821C8293992CC081E37ADE39DE99
:10041000282D8E159F050CF0232D2223D1F0282D99
:100420004E815F81481759070CF0232D222389F054
:1004300082E367DE8C819D8101969D838C8362E0DF
:10044000CE01049662DE8C819D81813F914024F42F
:1004500008C01D821C8205C0939A83E352DE1D8270
:100460001C8286B38470982E871569F1882D7110CF
:10047000832D8823E1F0882D911001C0832D8823DE
:10048000B1F0611005C013BE12BEF89484E539DEE8
:100490008B81811103C0AC9A8B8202C0AC983B82E5
:1004A00040E150E063E0CE01019655DE0CC06110E2
:1004B0000AC0109263001092620083B7856083BF08
:1004C000789483E51EDE809162009091630083360C
:1004D00092405CF0109263001092620013BE12BE54
:1004E000F89484E40EDE939A682C0130110589F1AA
:1004F00024F40115110551F094C00230110509F4DE
:100500005FC00330110509F46CC08BC0A2DE8823E4
:1005100009F48BC080FF02C0DA82C98281FF02C069
:10052000BA82A98282FF04C04CEC52E05A8349830C
:1005300083FF04C089E991E09A83898389819A8144
:100540009BBD8ABD40E150E063E0CE01019603DE31
:100550006CC07FDE882309F468C080FF02C0DA82A5
:10056000C98281FF02C0BA82A98282FF0DC029819F
:100570003A812B3893E0390728F42A593F4F3A83C0
:10058000298302C0BA82A98283FF0FC089819A8120
:100590009C012C5C31092B38334028F48656910994
:1005A0009A83898302C0DA82C98289819A819BBD3C
:1005B0008ABD40E150E063E0CE010196CCDD35C05C
:1005C00085E052DD83529240880F991F9A83898378
:1005D0009BBD8ABD40E150E063E0CE010196BBDDEA
:1005E00024C085E041DD81599140BC01882777FD19
:1005F0008095982F24D12AE939E949EB5FE3ABD103
:1006000020E030E04CEC52E41BD0EBD07A836983DD
:100610007BBD6ABD40E150E063E0CE0101969BDD09
:1006200004C085E46EDD82E56CDD88B3882588BB77
:10063000842D952D01970097E9F7792CC7CE505856
:10064000BB27AA270ED04DC13ED130F043D120F0B8
:1006500031F49F3F11F41EF433C10EF4E095E7FB33
:1006600029C1E92F4FD180F3BA17620773078407B6
:10067000950718F071F49EF567C10EF4E0950B2E06
:10068000BA2FA02D0B01B90190010C01CA01A001E4
:100690001124FF27591B99F0593F50F4503E68F13F
:1006A0001A16F040A22F232F342F4427585FF3CF80
:1006B000469537952795A795F0405395C9F77EF451
:1006C0001F16BA0B620B730B840BBAF09150A1F09A
:1006D000FF0FBB1F661F771F881FC2F70EC0BA0F20
:1006E000621F731F841F48F4879577956795B795A8
:1006F000F7959E3F08F0B3CF9395880F08F09927A0
:10070000EE0F9795879508950CD0EBC0E3D040F09D
:10071000DAD030F021F45F3F19F0CCC0511115C18F
:10072000CFC0F0D098F39923C9F35523B1F3951BAB
:10073000550BBB27AA2762177307840738F09F5F02
:100740005F4F220F331F441FAA1FA9F333D00E2E71
:100750003AF0E0E830D091505040E695001CCAF7DE
:1007600029D0FE2F27D0660F771F881FBB1F2617A3
:1007700037074807AB07B0E809F0BB0B802DBF0176
:10078000FF2793585F4F2AF09E3F510568F092C0B3
:10079000DCC05F3FECF3983EDCF386957795679578
:1007A000B795F7959F5FC9F7880F911D9695879527
:1007B00097F90895E1E0660F771F881FBB1F621746
:1007C00073078407BA0720F0621B730B840BBA0B04
:1007D000EE1F88F7E095089504D06894B111B5C074
:1007E000089598D088F09F5790F0B92F9927B75166
:1007F000A0F0D1F0660F771F881F991F1AF0BA95E5
:10080000C9F712C0B13081F09FD0B1E008959CC00B
:10081000672F782F8827B85F39F0B93FCCF38695DA
:1008200077956795B395D9F73EF490958095709537
:1008300061957F4F8F4F9F4F0895E89409C097FBB4
:100840003EF490958095709561957F4F8F4F9F4FA7
:100850009923A9F0F92F96E9BB279395F6958795EB
:1008600077956795B795F111F8CFFAF4BB0F11F4AE
:1008700060FF1BC06F5F7F4F8F4F9F4F16C0882355
:1008800011F096E911C0772321F09EE8872F762F8B
:1008900005C0662371F096E8862F70E060E02AF0CC
:1008A0009A95660F771F881FDAF7880F96958795B8
:1008B00097F9089597F99F6780E870E060E00895E0
:1008C0009FEF80EC089500240A9416161706180668
:1008D0000906089500240A94121613061406050644
:1008E0000895092E0394000C11F4882352F0BB0FD5
:1008F00040F4BF2B11F460FF04C06F5F7F4F8F4F38
:100900009F4F089557FD9058440F551F59F05F3F72
:1009100071F04795880F97FB991F61F09F3F79F021
:1009200087950895121613061406551FF2CF4695A3
:10093000F1DF08C0161617061806991FF1CF869525
:100940007105610508940895E894BB276627772709
:10095000CB0197F908950BD0C4CFB5DF28F0BADFEB
:1009600018F0952309F0A6CFABCF1124EECFCADF44
:10097000A0F3959FD1F3950F50E0551F629FF001B2
:10098000729FBB27F00DB11D639FAA27F00DB11D0B
:10099000AA1F649F6627B00DA11D661F829F222794
:1009A000B00DA11D621F739FB00DA11D621F839F1B
:1009B000A00D611D221F749F3327A00D611D231FF1
:1009C000849F600D211D822F762F6A2F11249F573F
:1009D00050408AF0E1F088234AF0EE0FFF1FBB1F62
:1009E000661F771F881F91505040A9F79E3F510501
:1009F00070F060CFAACF5F3FECF3983EDCF38695B2
:100A000077956795B795F795E7959F5FC1F7FE2BAB
:100A1000880F911D9695879597F90895F894FFCFC3
:020A20000F00C5
:00000001FF
