:1000000012C024C023C022C021C020C01FC01EC0F7
:100010001DC01CC01BC01AC019C018C017C016C014
:1000200015C014C013C011241FBECFE5D4E0DEBF3D
:10003000CDBF10E0A0E6B0E0EAEFF0E002C005902E
:100040000D92AE36B107D9F730D055C0D9CFB89A96
:10005000089583E089B9599886E880BD539A089538
:10006000F6DFF7DF08955D9BFECF8CB90895EF9220
:10007000FF920F931F93CF93DF93E62EF12C1E1464
:100080001F0464F4082F192FC0E0D0E0F80181911B
:100090008F01E9DF2196CE15DF05C4F3DF91CF9103
:1000A0001F910F91FF90EF900895CF93DF93CDB7FD
:1000B000DEB72D970FB6F894DEBF0FBECDBF8DE033
:1000C000E0E6F0E0DE01119601900D928A95E1F7ED
:1000D000C7DF81E38CB988EE93E001970097E9F7D9
:1000E00085E3C1DF6DE0CE010196C1DF91E088B309
:0A00F000892788BBFCCFF894FFCFEE
:0E00FA0054657374204D657373616765000073
:00000001FF
